{
	"contracts/GasOptimization.sol": {
		"GasOptimization": {
			"abi": [
				{
					"inputs": [
						{
							"internalType": "uint256",
							"name": "",
							"type": "uint256"
						}
					],
					"name": "arr",
					"outputs": [
						{
							"internalType": "uint256",
							"name": "",
							"type": "uint256"
						}
					],
					"stateMutability": "view",
					"type": "function"
				},
				{
					"inputs": [
						{
							"internalType": "uint256",
							"name": "n",
							"type": "uint256"
						}
					],
					"name": "pushExtreme",
					"outputs": [],
					"stateMutability": "nonpayable",
					"type": "function"
				},
				{
					"inputs": [
						{
							"internalType": "uint256",
							"name": "n",
							"type": "uint256"
						}
					],
					"name": "pushNaive",
					"outputs": [],
					"stateMutability": "nonpayable",
					"type": "function"
				},
				{
					"inputs": [
						{
							"internalType": "uint256",
							"name": "n",
							"type": "uint256"
						}
					],
					"name": "pushOptimized",
					"outputs": [],
					"stateMutability": "nonpayable",
					"type": "function"
				},
				{
					"inputs": [],
					"name": "reset",
					"outputs": [],
					"stateMutability": "nonpayable",
					"type": "function"
				}
			],
			"devdoc": {
				"kind": "dev",
				"methods": {},
				"version": 1
			},
			"evm": {
				"assembly": "    /* \"contracts/GasOptimization.sol\":58:1265  contract GasOptimization {... */\n  mstore(0x40, 0x80)\n  callvalue\n  dup1\n  iszero\n  tag_1\n  jumpi\n  revert(0x00, 0x00)\ntag_1:\n  pop\n  dataSize(sub_0)\n  dup1\n  dataOffset(sub_0)\n  0x00\n  codecopy\n  0x00\n  return\nstop\n\nsub_0: assembly {\n        /* \"contracts/GasOptimization.sol\":58:1265  contract GasOptimization {... */\n      mstore(0x40, 0x80)\n      callvalue\n      dup1\n      iszero\n      tag_1\n      jumpi\n      revert(0x00, 0x00)\n    tag_1:\n      pop\n      jumpi(tag_2, lt(calldatasize, 0x04))\n      shr(0xe0, calldataload(0x00))\n      dup1\n      0x0eb3fccc\n      eq\n      tag_3\n      jumpi\n      dup1\n      0x5e3e0768\n      eq\n      tag_4\n      jumpi\n      dup1\n      0x71e5ee5f\n      eq\n      tag_5\n      jumpi\n      dup1\n      0xd826f88f\n      eq\n      tag_6\n      jumpi\n      dup1\n      0xf2cf7dec\n      eq\n      tag_7\n      jumpi\n    tag_2:\n      revert(0x00, 0x00)\n        /* \"contracts/GasOptimization.sol\":189:310  function pushNaive(uint256 n) public {... */\n    tag_3:\n      tag_8\n      0x04\n      dup1\n      calldatasize\n      sub\n      dup2\n      add\n      swap1\n      tag_9\n      swap2\n      swap1\n      tag_10\n      jump\t// in\n    tag_9:\n      tag_11\n      jump\t// in\n    tag_8:\n      stop\n        /* \"contracts/GasOptimization.sol\":611:1263  function pushExtreme(uint256 n) public {... */\n    tag_4:\n      tag_12\n      0x04\n      dup1\n      calldatasize\n      sub\n      dup2\n      add\n      swap1\n      tag_13\n      swap2\n      swap1\n      tag_10\n      jump\t// in\n    tag_13:\n      tag_14\n      jump\t// in\n    tag_12:\n      stop\n        /* \"contracts/GasOptimization.sol\":89:109  uint256[] public arr */\n    tag_5:\n      tag_15\n      0x04\n      dup1\n      calldatasize\n      sub\n      dup2\n      add\n      swap1\n      tag_16\n      swap2\n      swap1\n      tag_10\n      jump\t// in\n    tag_16:\n      tag_17\n      jump\t// in\n    tag_15:\n      mload(0x40)\n      tag_18\n      swap2\n      swap1\n      tag_19\n      jump\t// in\n    tag_18:\n      mload(0x40)\n      dup1\n      swap2\n      sub\n      swap1\n      return\n        /* \"contracts/GasOptimization.sol\":116:167  function reset() public {... */\n    tag_6:\n      tag_20\n      tag_21\n      jump\t// in\n    tag_20:\n      stop\n        /* \"contracts/GasOptimization.sol\":356:542  function pushOptimized(uint256 n) public {... */\n    tag_7:\n      tag_22\n      0x04\n      dup1\n      calldatasize\n      sub\n      dup2\n      add\n      swap1\n      tag_23\n      swap2\n      swap1\n      tag_10\n      jump\t// in\n    tag_23:\n      tag_24\n      jump\t// in\n    tag_22:\n      stop\n        /* \"contracts/GasOptimization.sol\":189:310  function pushNaive(uint256 n) public {... */\n    tag_11:\n        /* \"contracts/GasOptimization.sol\":241:250  uint256 i */\n      0x00\n        /* \"contracts/GasOptimization.sol\":253:254  0 */\n      0x00\n        /* \"contracts/GasOptimization.sol\":241:254  uint256 i = 0 */\n      swap1\n      pop\n        /* \"contracts/GasOptimization.sol\":236:304  for (uint256 i = 0; i < n; i++) {... */\n    tag_26:\n        /* \"contracts/GasOptimization.sol\":260:261  n */\n      dup2\n        /* \"contracts/GasOptimization.sol\":256:257  i */\n      dup2\n        /* \"contracts/GasOptimization.sol\":256:261  i < n */\n      lt\n        /* \"contracts/GasOptimization.sol\":236:304  for (uint256 i = 0; i < n; i++) {... */\n      iszero\n      tag_27\n      jumpi\n        /* \"contracts/GasOptimization.sol\":282:285  arr */\n      0x00\n        /* \"contracts/GasOptimization.sol\":291:292  i */\n      dup2\n        /* \"contracts/GasOptimization.sol\":282:293  arr.push(i) */\n      swap1\n      dup1\n      0x01\n      dup2\n      sload\n      add\n      dup1\n      dup3\n      sstore\n      dup1\n      swap2\n      pop\n      pop\n      0x01\n      swap1\n      sub\n      swap1\n      0x00\n      mstore\n      keccak256(0x00, 0x20)\n      add\n      0x00\n      swap1\n      swap2\n      swap1\n      swap2\n      swap1\n      swap2\n      pop\n      sstore\n        /* \"contracts/GasOptimization.sol\":263:266  i++ */\n      dup1\n      dup1\n      0x01\n      add\n      swap2\n      pop\n      pop\n        /* \"contracts/GasOptimization.sol\":236:304  for (uint256 i = 0; i < n; i++) {... */\n      jump(tag_26)\n    tag_27:\n      pop\n        /* \"contracts/GasOptimization.sol\":189:310  function pushNaive(uint256 n) public {... */\n      pop\n      jump\t// out\n        /* \"contracts/GasOptimization.sol\":611:1263  function pushExtreme(uint256 n) public {... */\n    tag_14:\n        /* \"contracts/GasOptimization.sol\":660:673  uint256 start */\n      0x00\n        /* \"contracts/GasOptimization.sol\":676:679  arr */\n      0x00\n        /* \"contracts/GasOptimization.sol\":676:686  arr.length */\n      dup1\n      sload\n      swap1\n      pop\n        /* \"contracts/GasOptimization.sol\":660:686  uint256 start = arr.length */\n      swap1\n      pop\n        /* \"contracts/GasOptimization.sol\":790:791  n */\n      dup2\n        /* \"contracts/GasOptimization.sol\":779:787  arr.slot */\n      0x00\n        /* \"contracts/GasOptimization.sol\":773:788  sload(arr.slot) */\n      sload\n        /* \"contracts/GasOptimization.sol\":769:792  add(sload(arr.slot), n) */\n      add\n        /* \"contracts/GasOptimization.sol\":759:767  arr.slot */\n      0x00\n        /* \"contracts/GasOptimization.sol\":752:793  sstore(arr.slot, add(sload(arr.slot), n)) */\n      sstore\n        /* \"contracts/GasOptimization.sol\":870:882  bytes32 base */\n      0x00\n        /* \"contracts/GasOptimization.sol\":928:936  arr.slot */\n      0x00\n        /* \"contracts/GasOptimization.sol\":922:926  0x00 */\n      0x00\n        /* \"contracts/GasOptimization.sol\":915:937  mstore(0x00, arr.slot) */\n      mstore\n        /* \"contracts/GasOptimization.sol\":974:978  0x20 */\n      0x20\n        /* \"contracts/GasOptimization.sol\":968:972  0x00 */\n      0x00\n        /* \"contracts/GasOptimization.sol\":958:979  keccak256(0x00, 0x20) */\n      keccak256\n        /* \"contracts/GasOptimization.sol\":950:979  base := keccak256(0x00, 0x20) */\n      swap1\n      pop\n        /* \"contracts/GasOptimization.sol\":1059:1068  uint256 i */\n      0x00\n        /* \"contracts/GasOptimization.sol\":1071:1072  0 */\n      0x00\n        /* \"contracts/GasOptimization.sol\":1059:1072  uint256 i = 0 */\n      swap1\n      pop\n        /* \"contracts/GasOptimization.sol\":1054:1257  for (uint256 i = 0; i < n; ) {... */\n    tag_31:\n        /* \"contracts/GasOptimization.sol\":1078:1079  n */\n      dup4\n        /* \"contracts/GasOptimization.sol\":1074:1075  i */\n      dup2\n        /* \"contracts/GasOptimization.sol\":1074:1079  i < n */\n      lt\n        /* \"contracts/GasOptimization.sol\":1054:1257  for (uint256 i = 0; i < n; ) {... */\n      iszero\n      tag_32\n      jumpi\n        /* \"contracts/GasOptimization.sol\":1097:1108  bytes32 pos */\n      0x00\n        /* \"contracts/GasOptimization.sol\":1144:1145  i */\n      dup2\n        /* \"contracts/GasOptimization.sol\":1136:1141  start */\n      dup5\n        /* \"contracts/GasOptimization.sol\":1136:1145  start + i */\n      tag_34\n      swap2\n      swap1\n      tag_35\n      jump\t// in\n    tag_34:\n        /* \"contracts/GasOptimization.sol\":1127:1131  base */\n      dup4\n        /* \"contracts/GasOptimization.sol\":1119:1132  uint256(base) */\n      0x00\n      shr\n        /* \"contracts/GasOptimization.sol\":1119:1146  uint256(base) + (start + i) */\n      tag_36\n      swap2\n      swap1\n      tag_35\n      jump\t// in\n    tag_36:\n        /* \"contracts/GasOptimization.sol\":1111:1147  bytes32(uint256(base) + (start + i)) */\n      0x00\n      shl\n        /* \"contracts/GasOptimization.sol\":1097:1147  bytes32 pos = bytes32(uint256(base) + (start + i)) */\n      swap1\n      pop\n        /* \"contracts/GasOptimization.sol\":1200:1201  i */\n      dup2\n        /* \"contracts/GasOptimization.sol\":1195:1198  pos */\n      dup2\n        /* \"contracts/GasOptimization.sol\":1188:1202  sstore(pos, i) */\n      sstore\n        /* \"contracts/GasOptimization.sol\":1241:1244  i++ */\n      dup2\n      dup1\n      0x01\n      add\n      swap3\n      pop\n      pop\n        /* \"contracts/GasOptimization.sol\":1083:1257  {... */\n      pop\n        /* \"contracts/GasOptimization.sol\":1054:1257  for (uint256 i = 0; i < n; ) {... */\n      jump(tag_31)\n    tag_32:\n      pop\n        /* \"contracts/GasOptimization.sol\":650:1263  {... */\n      pop\n      pop\n        /* \"contracts/GasOptimization.sol\":611:1263  function pushExtreme(uint256 n) public {... */\n      pop\n      jump\t// out\n        /* \"contracts/GasOptimization.sol\":89:109  uint256[] public arr */\n    tag_17:\n      0x00\n      dup2\n      dup2\n      sload\n      dup2\n      lt\n      tag_37\n      jumpi\n      0x00\n      dup1\n      revert\n    tag_37:\n      swap1\n      0x00\n      mstore\n      keccak256(0x00, 0x20)\n      add\n      0x00\n      swap2\n      pop\n      swap1\n      pop\n      sload\n      dup2\n      jump\t// out\n        /* \"contracts/GasOptimization.sol\":116:167  function reset() public {... */\n    tag_21:\n        /* \"contracts/GasOptimization.sol\":157:160  arr */\n      0x00\n      0x00\n        /* \"contracts/GasOptimization.sol\":150:160  delete arr */\n      tag_40\n      swap2\n      swap1\n      tag_41\n      jump\t// in\n    tag_40:\n        /* \"contracts/GasOptimization.sol\":116:167  function reset() public {... */\n      jump\t// out\n        /* \"contracts/GasOptimization.sol\":356:542  function pushOptimized(uint256 n) public {... */\n    tag_24:\n        /* \"contracts/GasOptimization.sol\":407:426  uint256[] storage a */\n      0x00\n        /* \"contracts/GasOptimization.sol\":429:432  arr */\n      0x00\n        /* \"contracts/GasOptimization.sol\":407:432  uint256[] storage a = arr */\n      swap1\n      pop\n        /* \"contracts/GasOptimization.sol\":447:456  uint256 i */\n      0x00\n        /* \"contracts/GasOptimization.sol\":459:460  0 */\n      0x00\n        /* \"contracts/GasOptimization.sol\":447:460  uint256 i = 0 */\n      swap1\n      pop\n        /* \"contracts/GasOptimization.sol\":442:536  for (uint256 i = 0; i < n; ) {... */\n    tag_43:\n        /* \"contracts/GasOptimization.sol\":466:467  n */\n      dup3\n        /* \"contracts/GasOptimization.sol\":462:463  i */\n      dup2\n        /* \"contracts/GasOptimization.sol\":462:467  i < n */\n      lt\n        /* \"contracts/GasOptimization.sol\":442:536  for (uint256 i = 0; i < n; ) {... */\n      iszero\n      tag_44\n      jumpi\n        /* \"contracts/GasOptimization.sol\":485:486  a */\n      dup2\n        /* \"contracts/GasOptimization.sol\":492:493  i */\n      dup2\n        /* \"contracts/GasOptimization.sol\":485:494  a.push(i) */\n      swap1\n      dup1\n      0x01\n      dup2\n      sload\n      add\n      dup1\n      dup3\n      sstore\n      dup1\n      swap2\n      pop\n      pop\n      0x01\n      swap1\n      sub\n      swap1\n      0x00\n      mstore\n      keccak256(0x00, 0x20)\n      add\n      0x00\n      swap1\n      swap2\n      swap1\n      swap2\n      swap1\n      swap2\n      pop\n      sstore\n        /* \"contracts/GasOptimization.sol\":520:523  i++ */\n      dup1\n      dup1\n      0x01\n      add\n      swap2\n      pop\n      pop\n        /* \"contracts/GasOptimization.sol\":442:536  for (uint256 i = 0; i < n; ) {... */\n      jump(tag_43)\n    tag_44:\n      pop\n        /* \"contracts/GasOptimization.sol\":397:542  {... */\n      pop\n        /* \"contracts/GasOptimization.sol\":356:542  function pushOptimized(uint256 n) public {... */\n      pop\n      jump\t// out\n    tag_41:\n      pop\n      dup1\n      sload\n      0x00\n      dup3\n      sstore\n      swap1\n      0x00\n      mstore\n      keccak256(0x00, 0x20)\n      swap1\n      dup2\n      add\n      swap1\n      tag_48\n      swap2\n      swap1\n      tag_49\n      jump\t// in\n    tag_48:\n      pop\n      jump\t// out\n    tag_49:\n    tag_50:\n      dup1\n      dup3\n      gt\n      iszero\n      tag_51\n      jumpi\n      0x00\n      dup2\n      0x00\n      swap1\n      sstore\n      pop\n      0x01\n      add\n      jump(tag_50)\n    tag_51:\n      pop\n      swap1\n      jump\t// out\n        /* \"#utility.yul\":88:205   */\n    tag_53:\n        /* \"#utility.yul\":197:198   */\n      0x00\n        /* \"#utility.yul\":194:195   */\n      0x00\n        /* \"#utility.yul\":187:199   */\n      revert\n        /* \"#utility.yul\":334:411   */\n    tag_55:\n        /* \"#utility.yul\":371:378   */\n      0x00\n        /* \"#utility.yul\":400:405   */\n      dup2\n        /* \"#utility.yul\":389:405   */\n      swap1\n      pop\n        /* \"#utility.yul\":334:411   */\n      swap2\n      swap1\n      pop\n      jump\t// out\n        /* \"#utility.yul\":417:539   */\n    tag_56:\n        /* \"#utility.yul\":490:514   */\n      tag_66\n        /* \"#utility.yul\":508:513   */\n      dup2\n        /* \"#utility.yul\":490:514   */\n      tag_55\n      jump\t// in\n    tag_66:\n        /* \"#utility.yul\":483:488   */\n      dup2\n        /* \"#utility.yul\":480:515   */\n      eq\n        /* \"#utility.yul\":470:533   */\n      tag_67\n      jumpi\n        /* \"#utility.yul\":529:530   */\n      0x00\n        /* \"#utility.yul\":526:527   */\n      0x00\n        /* \"#utility.yul\":519:531   */\n      revert\n        /* \"#utility.yul\":470:533   */\n    tag_67:\n        /* \"#utility.yul\":417:539   */\n      pop\n      jump\t// out\n        /* \"#utility.yul\":545:684   */\n    tag_57:\n        /* \"#utility.yul\":591:596   */\n      0x00\n        /* \"#utility.yul\":629:635   */\n      dup2\n        /* \"#utility.yul\":616:636   */\n      calldataload\n        /* \"#utility.yul\":607:636   */\n      swap1\n      pop\n        /* \"#utility.yul\":645:678   */\n      tag_69\n        /* \"#utility.yul\":672:677   */\n      dup2\n        /* \"#utility.yul\":645:678   */\n      tag_56\n      jump\t// in\n    tag_69:\n        /* \"#utility.yul\":545:684   */\n      swap3\n      swap2\n      pop\n      pop\n      jump\t// out\n        /* \"#utility.yul\":690:1019   */\n    tag_10:\n        /* \"#utility.yul\":749:755   */\n      0x00\n        /* \"#utility.yul\":798:800   */\n      0x20\n        /* \"#utility.yul\":786:795   */\n      dup3\n        /* \"#utility.yul\":777:784   */\n      dup5\n        /* \"#utility.yul\":773:796   */\n      sub\n        /* \"#utility.yul\":769:801   */\n      slt\n        /* \"#utility.yul\":766:885   */\n      iszero\n      tag_71\n      jumpi\n        /* \"#utility.yul\":804:883   */\n      tag_72\n      tag_53\n      jump\t// in\n    tag_72:\n        /* \"#utility.yul\":766:885   */\n    tag_71:\n        /* \"#utility.yul\":924:925   */\n      0x00\n        /* \"#utility.yul\":949:1002   */\n      tag_73\n        /* \"#utility.yul\":994:1001   */\n      dup5\n        /* \"#utility.yul\":985:991   */\n      dup3\n        /* \"#utility.yul\":974:983   */\n      dup6\n        /* \"#utility.yul\":970:992   */\n      add\n        /* \"#utility.yul\":949:1002   */\n      tag_57\n      jump\t// in\n    tag_73:\n        /* \"#utility.yul\":939:1002   */\n      swap2\n      pop\n        /* \"#utility.yul\":895:1012   */\n      pop\n        /* \"#utility.yul\":690:1019   */\n      swap3\n      swap2\n      pop\n      pop\n      jump\t// out\n        /* \"#utility.yul\":1025:1143   */\n    tag_58:\n        /* \"#utility.yul\":1112:1136   */\n      tag_75\n        /* \"#utility.yul\":1130:1135   */\n      dup2\n        /* \"#utility.yul\":1112:1136   */\n      tag_55\n      jump\t// in\n    tag_75:\n        /* \"#utility.yul\":1107:1110   */\n      dup3\n        /* \"#utility.yul\":1100:1137   */\n      mstore\n        /* \"#utility.yul\":1025:1143   */\n      pop\n      pop\n      jump\t// out\n        /* \"#utility.yul\":1149:1371   */\n    tag_19:\n        /* \"#utility.yul\":1242:1246   */\n      0x00\n        /* \"#utility.yul\":1280:1282   */\n      0x20\n        /* \"#utility.yul\":1269:1278   */\n      dup3\n        /* \"#utility.yul\":1265:1283   */\n      add\n        /* \"#utility.yul\":1257:1283   */\n      swap1\n      pop\n        /* \"#utility.yul\":1293:1364   */\n      tag_77\n        /* \"#utility.yul\":1361:1362   */\n      0x00\n        /* \"#utility.yul\":1350:1359   */\n      dup4\n        /* \"#utility.yul\":1346:1363   */\n      add\n        /* \"#utility.yul\":1337:1343   */\n      dup5\n        /* \"#utility.yul\":1293:1364   */\n      tag_58\n      jump\t// in\n    tag_77:\n        /* \"#utility.yul\":1149:1371   */\n      swap3\n      swap2\n      pop\n      pop\n      jump\t// out\n        /* \"#utility.yul\":1377:1557   */\n    tag_59:\n        /* \"#utility.yul\":1425:1502   */\n      0x4e487b7100000000000000000000000000000000000000000000000000000000\n        /* \"#utility.yul\":1422:1423   */\n      0x00\n        /* \"#utility.yul\":1415:1503   */\n      mstore\n        /* \"#utility.yul\":1522:1526   */\n      0x11\n        /* \"#utility.yul\":1519:1520   */\n      0x04\n        /* \"#utility.yul\":1512:1527   */\n      mstore\n        /* \"#utility.yul\":1546:1550   */\n      0x24\n        /* \"#utility.yul\":1543:1544   */\n      0x00\n        /* \"#utility.yul\":1536:1551   */\n      revert\n        /* \"#utility.yul\":1563:1754   */\n    tag_35:\n        /* \"#utility.yul\":1603:1606   */\n      0x00\n        /* \"#utility.yul\":1622:1642   */\n      tag_80\n        /* \"#utility.yul\":1640:1641   */\n      dup3\n        /* \"#utility.yul\":1622:1642   */\n      tag_55\n      jump\t// in\n    tag_80:\n        /* \"#utility.yul\":1617:1642   */\n      swap2\n      pop\n        /* \"#utility.yul\":1656:1676   */\n      tag_81\n        /* \"#utility.yul\":1674:1675   */\n      dup4\n        /* \"#utility.yul\":1656:1676   */\n      tag_55\n      jump\t// in\n    tag_81:\n        /* \"#utility.yul\":1651:1676   */\n      swap3\n      pop\n        /* \"#utility.yul\":1699:1700   */\n      dup3\n        /* \"#utility.yul\":1696:1697   */\n      dup3\n        /* \"#utility.yul\":1692:1701   */\n      add\n        /* \"#utility.yul\":1685:1701   */\n      swap1\n      pop\n        /* \"#utility.yul\":1720:1723   */\n      dup1\n        /* \"#utility.yul\":1717:1718   */\n      dup3\n        /* \"#utility.yul\":1714:1724   */\n      gt\n        /* \"#utility.yul\":1711:1747   */\n      iszero\n      tag_82\n      jumpi\n        /* \"#utility.yul\":1727:1745   */\n      tag_83\n      tag_59\n      jump\t// in\n    tag_83:\n        /* \"#utility.yul\":1711:1747   */\n    tag_82:\n        /* \"#utility.yul\":1563:1754   */\n      swap3\n      swap2\n      pop\n      pop\n      jump\t// out\n\n    auxdata: 0xa2646970667358221220c29d97a2fdcb032313c03de19fadfe5f94ec8f5eac16359222553e553ebcbe8464736f6c634300081f0033\n}\n",
				"bytecode": {
					"linkReferences": {},
					"object": "6080604052348015600e575f5ffd5b506103528061001c5f395ff3fe608060405234801561000f575f5ffd5b5060043610610055575f3560e01c80630eb3fccc146100595780635e3e07681461007557806371e5ee5f14610091578063d826f88f146100c1578063f2cf7dec146100cb575b5f5ffd5b610073600480360381019061006e9190610269565b6100e7565b005b61008f600480360381019061008a9190610269565b61012a565b005b6100ab60048036038101906100a69190610269565b610184565b6040516100b891906102a3565b60405180910390f35b6100c96101a3565b005b6100e560048036038101906100e09190610269565b6101b1565b005b5f5f90505b81811015610126575f81908060018154018082558091505060019003905f5260205f20015f909190919091505580806001019150506100ec565b5050565b5f5f805490509050815f54015f555f5f5f5260205f2090505f5f90505b8381101561017e575f818461015c91906102e9565b835f1c61016991906102e9565b5f1b9050818155818060010192505050610147565b50505050565b5f8181548110610192575f80fd5b905f5260205f20015f915090505481565b5f5f6101af91906101f9565b565b5f5f90505f5f90505b828110156101f4578181908060018154018082558091505060019003905f5260205f20015f909190919091505580806001019150506101ba565b505050565b5080545f8255905f5260205f20908101906102149190610217565b50565b5b8082111561022e575f815f905550600101610218565b5090565b5f5ffd5b5f819050919050565b61024881610236565b8114610252575f5ffd5b50565b5f813590506102638161023f565b92915050565b5f6020828403121561027e5761027d610232565b5b5f61028b84828501610255565b91505092915050565b61029d81610236565b82525050565b5f6020820190506102b65f830184610294565b92915050565b7f4e487b71000000000000000000000000000000000000000000000000000000005f52601160045260245ffd5b5f6102f382610236565b91506102fe83610236565b9250828201905080821115610316576103156102bc565b5b9291505056fea2646970667358221220c29d97a2fdcb032313c03de19fadfe5f94ec8f5eac16359222553e553ebcbe8464736f6c634300081f0033",
					"opcodes": "PUSH1 0x80 PUSH1 0x40 MSTORE CALLVALUE DUP1 ISZERO PUSH1 0xE JUMPI PUSH0 PUSH0 REVERT JUMPDEST POP PUSH2 0x352 DUP1 PUSH2 0x1C PUSH0 CODECOPY PUSH0 RETURN INVALID PUSH1 0x80 PUSH1 0x40 MSTORE CALLVALUE DUP1 ISZERO PUSH2 0xF JUMPI PUSH0 PUSH0 REVERT JUMPDEST POP PUSH1 0x4 CALLDATASIZE LT PUSH2 0x55 JUMPI PUSH0 CALLDATALOAD PUSH1 0xE0 SHR DUP1 PUSH4 0xEB3FCCC EQ PUSH2 0x59 JUMPI DUP1 PUSH4 0x5E3E0768 EQ PUSH2 0x75 JUMPI DUP1 PUSH4 0x71E5EE5F EQ PUSH2 0x91 JUMPI DUP1 PUSH4 0xD826F88F EQ PUSH2 0xC1 JUMPI DUP1 PUSH4 0xF2CF7DEC EQ PUSH2 0xCB JUMPI JUMPDEST PUSH0 PUSH0 REVERT JUMPDEST PUSH2 0x73 PUSH1 0x4 DUP1 CALLDATASIZE SUB DUP2 ADD SWAP1 PUSH2 0x6E SWAP2 SWAP1 PUSH2 0x269 JUMP JUMPDEST PUSH2 0xE7 JUMP JUMPDEST STOP JUMPDEST PUSH2 0x8F PUSH1 0x4 DUP1 CALLDATASIZE SUB DUP2 ADD SWAP1 PUSH2 0x8A SWAP2 SWAP1 PUSH2 0x269 JUMP JUMPDEST PUSH2 0x12A JUMP JUMPDEST STOP JUMPDEST PUSH2 0xAB PUSH1 0x4 DUP1 CALLDATASIZE SUB DUP2 ADD SWAP1 PUSH2 0xA6 SWAP2 SWAP1 PUSH2 0x269 JUMP JUMPDEST PUSH2 0x184 JUMP JUMPDEST PUSH1 0x40 MLOAD PUSH2 0xB8 SWAP2 SWAP1 PUSH2 0x2A3 JUMP JUMPDEST PUSH1 0x40 MLOAD DUP1 SWAP2 SUB SWAP1 RETURN JUMPDEST PUSH2 0xC9 PUSH2 0x1A3 JUMP JUMPDEST STOP JUMPDEST PUSH2 0xE5 PUSH1 0x4 DUP1 CALLDATASIZE SUB DUP2 ADD SWAP1 PUSH2 0xE0 SWAP2 SWAP1 PUSH2 0x269 JUMP JUMPDEST PUSH2 0x1B1 JUMP JUMPDEST STOP JUMPDEST PUSH0 PUSH0 SWAP1 POP JUMPDEST DUP2 DUP2 LT ISZERO PUSH2 0x126 JUMPI PUSH0 DUP2 SWAP1 DUP1 PUSH1 0x1 DUP2 SLOAD ADD DUP1 DUP3 SSTORE DUP1 SWAP2 POP POP PUSH1 0x1 SWAP1 SUB SWAP1 PUSH0 MSTORE PUSH1 0x20 PUSH0 KECCAK256 ADD PUSH0 SWAP1 SWAP2 SWAP1 SWAP2 SWAP1 SWAP2 POP SSTORE DUP1 DUP1 PUSH1 0x1 ADD SWAP2 POP POP PUSH2 0xEC JUMP JUMPDEST POP POP JUMP JUMPDEST PUSH0 PUSH0 DUP1 SLOAD SWAP1 POP SWAP1 POP DUP2 PUSH0 SLOAD ADD PUSH0 SSTORE PUSH0 PUSH0 PUSH0 MSTORE PUSH1 0x20 PUSH0 KECCAK256 SWAP1 POP PUSH0 PUSH0 SWAP1 POP JUMPDEST DUP4 DUP2 LT ISZERO PUSH2 0x17E JUMPI PUSH0 DUP2 DUP5 PUSH2 0x15C SWAP2 SWAP1 PUSH2 0x2E9 JUMP JUMPDEST DUP4 PUSH0 SHR PUSH2 0x169 SWAP2 SWAP1 PUSH2 0x2E9 JUMP JUMPDEST PUSH0 SHL SWAP1 POP DUP2 DUP2 SSTORE DUP2 DUP1 PUSH1 0x1 ADD SWAP3 POP POP POP PUSH2 0x147 JUMP JUMPDEST POP POP POP POP JUMP JUMPDEST PUSH0 DUP2 DUP2 SLOAD DUP2 LT PUSH2 0x192 JUMPI PUSH0 DUP1 REVERT JUMPDEST SWAP1 PUSH0 MSTORE PUSH1 0x20 PUSH0 KECCAK256 ADD PUSH0 SWAP2 POP SWAP1 POP SLOAD DUP2 JUMP JUMPDEST PUSH0 PUSH0 PUSH2 0x1AF SWAP2 SWAP1 PUSH2 0x1F9 JUMP JUMPDEST JUMP JUMPDEST PUSH0 PUSH0 SWAP1 POP PUSH0 PUSH0 SWAP1 POP JUMPDEST DUP3 DUP2 LT ISZERO PUSH2 0x1F4 JUMPI DUP2 DUP2 SWAP1 DUP1 PUSH1 0x1 DUP2 SLOAD ADD DUP1 DUP3 SSTORE DUP1 SWAP2 POP POP PUSH1 0x1 SWAP1 SUB SWAP1 PUSH0 MSTORE PUSH1 0x20 PUSH0 KECCAK256 ADD PUSH0 SWAP1 SWAP2 SWAP1 SWAP2 SWAP1 SWAP2 POP SSTORE DUP1 DUP1 PUSH1 0x1 ADD SWAP2 POP POP PUSH2 0x1BA JUMP JUMPDEST POP POP POP JUMP JUMPDEST POP DUP1 SLOAD PUSH0 DUP3 SSTORE SWAP1 PUSH0 MSTORE PUSH1 0x20 PUSH0 KECCAK256 SWAP1 DUP2 ADD SWAP1 PUSH2 0x214 SWAP2 SWAP1 PUSH2 0x217 JUMP JUMPDEST POP JUMP JUMPDEST JUMPDEST DUP1 DUP3 GT ISZERO PUSH2 0x22E JUMPI PUSH0 DUP2 PUSH0 SWAP1 SSTORE POP PUSH1 0x1 ADD PUSH2 0x218 JUMP JUMPDEST POP SWAP1 JUMP JUMPDEST PUSH0 PUSH0 REVERT JUMPDEST PUSH0 DUP2 SWAP1 POP SWAP2 SWAP1 POP JUMP JUMPDEST PUSH2 0x248 DUP2 PUSH2 0x236 JUMP JUMPDEST DUP2 EQ PUSH2 0x252 JUMPI PUSH0 PUSH0 REVERT JUMPDEST POP JUMP JUMPDEST PUSH0 DUP2 CALLDATALOAD SWAP1 POP PUSH2 0x263 DUP2 PUSH2 0x23F JUMP JUMPDEST SWAP3 SWAP2 POP POP JUMP JUMPDEST PUSH0 PUSH1 0x20 DUP3 DUP5 SUB SLT ISZERO PUSH2 0x27E JUMPI PUSH2 0x27D PUSH2 0x232 JUMP JUMPDEST JUMPDEST PUSH0 PUSH2 0x28B DUP5 DUP3 DUP6 ADD PUSH2 0x255 JUMP JUMPDEST SWAP2 POP POP SWAP3 SWAP2 POP POP JUMP JUMPDEST PUSH2 0x29D DUP2 PUSH2 0x236 JUMP JUMPDEST DUP3 MSTORE POP POP JUMP JUMPDEST PUSH0 PUSH1 0x20 DUP3 ADD SWAP1 POP PUSH2 0x2B6 PUSH0 DUP4 ADD DUP5 PUSH2 0x294 JUMP JUMPDEST SWAP3 SWAP2 POP POP JUMP JUMPDEST PUSH32 0x4E487B7100000000000000000000000000000000000000000000000000000000 PUSH0 MSTORE PUSH1 0x11 PUSH1 0x4 MSTORE PUSH1 0x24 PUSH0 REVERT JUMPDEST PUSH0 PUSH2 0x2F3 DUP3 PUSH2 0x236 JUMP JUMPDEST SWAP2 POP PUSH2 0x2FE DUP4 PUSH2 0x236 JUMP JUMPDEST SWAP3 POP DUP3 DUP3 ADD SWAP1 POP DUP1 DUP3 GT ISZERO PUSH2 0x316 JUMPI PUSH2 0x315 PUSH2 0x2BC JUMP JUMPDEST JUMPDEST SWAP3 SWAP2 POP POP JUMP INVALID LOG2 PUSH5 0x6970667358 0x22 SLT KECCAK256 0xC2 SWAP14 SWAP8 LOG2 REVERT 0xCB SUB 0x23 SGT 0xC0 RETURNDATASIZE RJUMPI 0x9FAD INVALID PUSH0 SWAP5 EOFCREATE 0x8F MCOPY 0xAC AND CALLDATALOAD SWAP3 0x22 SSTORE RETURNDATACOPY SSTORE RETURNDATACOPY 0xBC 0xBE DUP5 PUSH5 0x736F6C6343 STOP ADDMOD 0x1F STOP CALLER "
				},
				"gasEstimates": {
					"creation": {
						"codeDepositCost": "170000",
						"executionCost": "212",
						"totalCost": "170212"
					},
					"external": {
						"arr(uint256)": "infinite",
						"pushExtreme(uint256)": "infinite",
						"pushNaive(uint256)": "infinite",
						"pushOptimized(uint256)": "infinite",
						"reset()": "infinite"
					}
				},
				"methodIdentifiers": {
					"arr(uint256)": "71e5ee5f",
					"pushExtreme(uint256)": "5e3e0768",
					"pushNaive(uint256)": "0eb3fccc",
					"pushOptimized(uint256)": "f2cf7dec",
					"reset()": "d826f88f"
				}
			},
			"storageLayout": {
				"storage": [
					{
						"astId": 4,
						"contract": "contracts/GasOptimization.sol:GasOptimization",
						"label": "arr",
						"offset": 0,
						"slot": "0",
						"type": "t_array(t_uint256)dyn_storage"
					}
				],
				"types": {
					"t_array(t_uint256)dyn_storage": {
						"base": "t_uint256",
						"encoding": "dynamic_array",
						"label": "uint256[]",
						"numberOfBytes": "32"
					},
					"t_uint256": {
						"encoding": "inplace",
						"label": "uint256",
						"numberOfBytes": "32"
					}
				}
			},
			"userdoc": {
				"kind": "user",
				"methods": {},
				"version": 1
			}
		}
	}
}